{
  "_format": "hh-sol-artifact-1",
  "contractName": "SimpleFund",
  "sourceName": "contracts/SimpleFund.sol",
  "abi": [
    {
      "anonymous": false,
      "inputs": [
        {
          "indexed": false,
          "internalType": "uint256",
          "name": "projectId",
          "type": "uint256"
        },
        {
          "indexed": false,
          "internalType": "address",
          "name": "contributor",
          "type": "address"
        },
        {
          "indexed": false,
          "internalType": "uint256",
          "name": "amount",
          "type": "uint256"
        }
      ],
      "name": "FundsContributed",
      "type": "event"
    },
    {
      "anonymous": false,
      "inputs": [
        {
          "indexed": false,
          "internalType": "uint256",
          "name": "projectId",
          "type": "uint256"
        },
        {
          "indexed": false,
          "internalType": "address",
          "name": "creator",
          "type": "address"
        },
        {
          "indexed": false,
          "internalType": "uint256",
          "name": "amount",
          "type": "uint256"
        }
      ],
      "name": "FundsWithdrawn",
      "type": "event"
    },
    {
      "anonymous": false,
      "inputs": [
        {
          "indexed": false,
          "internalType": "uint256",
          "name": "projectId",
          "type": "uint256"
        },
        {
          "indexed": false,
          "internalType": "uint256",
          "name": "milestoneIndex",
          "type": "uint256"
        }
      ],
      "name": "MilestoneApproved",
      "type": "event"
    },
    {
      "anonymous": false,
      "inputs": [
        {
          "indexed": false,
          "internalType": "uint256",
          "name": "projectId",
          "type": "uint256"
        },
        {
          "indexed": false,
          "internalType": "address",
          "name": "creator",
          "type": "address"
        },
        {
          "indexed": false,
          "internalType": "uint256",
          "name": "goal",
          "type": "uint256"
        },
        {
          "indexed": false,
          "internalType": "uint256",
          "name": "deadline",
          "type": "uint256"
        }
      ],
      "name": "ProjectCreated",
      "type": "event"
    },
    {
      "anonymous": false,
      "inputs": [
        {
          "indexed": false,
          "internalType": "uint256",
          "name": "projectId",
          "type": "uint256"
        },
        {
          "indexed": false,
          "internalType": "address",
          "name": "contributor",
          "type": "address"
        },
        {
          "indexed": false,
          "internalType": "uint256",
          "name": "amount",
          "type": "uint256"
        }
      ],
      "name": "RefundClaimed",
      "type": "event"
    },
    {
      "inputs": [
        {
          "internalType": "uint256",
          "name": "_projectId",
          "type": "uint256"
        },
        {
          "internalType": "uint256",
          "name": "_milestoneIndex",
          "type": "uint256"
        }
      ],
      "name": "approveMilestone",
      "outputs": [],
      "stateMutability": "nonpayable",
      "type": "function"
    },
    {
      "inputs": [
        {
          "internalType": "uint256",
          "name": "_projectId",
          "type": "uint256"
        }
      ],
      "name": "claimRefund",
      "outputs": [],
      "stateMutability": "nonpayable",
      "type": "function"
    },
    {
      "inputs": [
        {
          "internalType": "uint256",
          "name": "_projectId",
          "type": "uint256"
        }
      ],
      "name": "contribute",
      "outputs": [],
      "stateMutability": "payable",
      "type": "function"
    },
    {
      "inputs": [
        {
          "internalType": "string",
          "name": "_name",
          "type": "string"
        },
        {
          "internalType": "string",
          "name": "_description",
          "type": "string"
        },
        {
          "internalType": "uint256",
          "name": "_goal",
          "type": "uint256"
        },
        {
          "internalType": "uint256",
          "name": "_deadline",
          "type": "uint256"
        }
      ],
      "name": "createProject",
      "outputs": [],
      "stateMutability": "nonpayable",
      "type": "function"
    },
    {
      "inputs": [
        {
          "internalType": "uint256",
          "name": "_projectId",
          "type": "uint256"
        },
        {
          "internalType": "address",
          "name": "_contributor",
          "type": "address"
        }
      ],
      "name": "getContribution",
      "outputs": [
        {
          "internalType": "uint256",
          "name": "",
          "type": "uint256"
        }
      ],
      "stateMutability": "view",
      "type": "function"
    },
    {
      "inputs": [
        {
          "internalType": "uint256",
          "name": "_projectId",
          "type": "uint256"
        }
      ],
      "name": "getProjectDetails",
      "outputs": [
        {
          "internalType": "address",
          "name": "creator",
          "type": "address"
        },
        {
          "internalType": "string",
          "name": "name",
          "type": "string"
        },
        {
          "internalType": "string",
          "name": "description",
          "type": "string"
        },
        {
          "internalType": "uint256",
          "name": "goal",
          "type": "uint256"
        },
        {
          "internalType": "uint256",
          "name": "totalFunds",
          "type": "uint256"
        },
        {
          "internalType": "uint256",
          "name": "deadline",
          "type": "uint256"
        },
        {
          "internalType": "bool[3]",
          "name": "milestones",
          "type": "bool[3]"
        },
        {
          "internalType": "bool",
          "name": "isClosed",
          "type": "bool"
        }
      ],
      "stateMutability": "view",
      "type": "function"
    },
    {
      "inputs": [],
      "name": "projectCount",
      "outputs": [
        {
          "internalType": "uint256",
          "name": "",
          "type": "uint256"
        }
      ],
      "stateMutability": "view",
      "type": "function"
    },
    {
      "inputs": [
        {
          "internalType": "uint256",
          "name": "",
          "type": "uint256"
        }
      ],
      "name": "projects",
      "outputs": [
        {
          "internalType": "address",
          "name": "creator",
          "type": "address"
        },
        {
          "internalType": "uint256",
          "name": "goal",
          "type": "uint256"
        },
        {
          "internalType": "uint256",
          "name": "deadline",
          "type": "uint256"
        },
        {
          "internalType": "uint256",
          "name": "totalFunds",
          "type": "uint256"
        },
        {
          "internalType": "string",
          "name": "name",
          "type": "string"
        },
        {
          "internalType": "string",
          "name": "description",
          "type": "string"
        },
        {
          "internalType": "bool",
          "name": "isClosed",
          "type": "bool"
        }
      ],
      "stateMutability": "view",
      "type": "function"
    }
  ],
  "bytecode": "0x60806040526000600155348015601457600080fd5b5061201e806100246000396000f3fe60806040526004361061007b5760003560e01c80635f8439e31161004e5780635f8439e31461014057806394ba970914610184578063c1cbbca7146101ad578063e081dbf9146101c95761007b565b8063107046bd1461008057806320913da5146100c357806336fbad26146100ec5780635b7baf6414610117575b600080fd5b34801561008c57600080fd5b506100a760048036038101906100a29190610fbb565b610206565b6040516100ba97969594939291906110e3565b60405180910390f35b3480156100cf57600080fd5b506100ea60048036038101906100e59190611160565b610385565b005b3480156100f857600080fd5b50610101610747565b60405161010e91906111a0565b60405180910390f35b34801561012357600080fd5b5061013e60048036038101906101399190610fbb565b61074d565b005b34801561014c57600080fd5b5061016760048036038101906101629190610fbb565b61099c565b60405161017b989796959493929190611266565b60405180910390f35b34801561019057600080fd5b506101ab60048036038101906101a69190611428565b610baf565b005b6101c760048036038101906101c29190610fbb565b610d4e565b005b3480156101d557600080fd5b506101f060048036038101906101eb91906114f3565b610ef2565b6040516101fd91906111a0565b60405180910390f35b60006020528060005260406000206000915090508060000160009054906101000a900473ffffffffffffffffffffffffffffffffffffffff169080600101549080600201549080600301549080600401805461026190611562565b80601f016020809104026020016040519081016040528092919081815260200182805461028d90611562565b80156102da5780601f106102af576101008083540402835291602001916102da565b820191906000526020600020905b8154815290600101906020018083116102bd57829003601f168201915b5050505050908060050180546102ef90611562565b80601f016020809104026020016040519081016040528092919081815260200182805461031b90611562565b80156103685780601f1061033d57610100808354040283529160200191610368565b820191906000526020600020905b81548152906001019060200180831161034b57829003601f168201915b5050505050908060070160009054906101000a900460ff16905087565b600080600084815260200190815260200160002090508060000160009054906101000a900473ffffffffffffffffffffffffffffffffffffffff1673ffffffffffffffffffffffffffffffffffffffff163373ffffffffffffffffffffffffffffffffffffffff161461042d576040517f08c379a000000000000000000000000000000000000000000000000000000000815260040161042490611605565b60405180910390fd5b60038210610470576040517f08c379a000000000000000000000000000000000000000000000000000000000815260040161046790611671565b60405180910390fd5b80600601826003811061048657610485611691565b5b602091828204019190069054906101000a900460ff16156104dc576040517f08c379a00000000000000000000000000000000000000000000000000000000081526004016104d39061170c565b60405180910390fd5b600082111561055d57806006016001836104f6919061175b565b6003811061050757610506611691565b5b602091828204019190069054906101000a900460ff1661055c576040517f08c379a0000000000000000000000000000000000000000000000000000000008152600401610553906117db565b60405180910390fd5b5b600181600601836003811061057557610574611691565b5b602091828204019190066101000a81548160ff0219169083151502179055507f939da3b627c123c81fe5aacebf925163337a0d4f8a03724640618078cad2489483836040516105c59291906117fb565b60405180910390a160008083036105fa576064601983600301546105e99190611824565b6105f39190611895565b905061066d565b60018303610626576064603283600301546106159190611824565b61061f9190611895565b905061066c565b6002830361066b576064601983600301546106419190611824565b61064b9190611895565b905060018260070160006101000a81548160ff0219169083151502179055505b5b5b6000811115610741578160000160009054906101000a900473ffffffffffffffffffffffffffffffffffffffff1673ffffffffffffffffffffffffffffffffffffffff166108fc829081150290604051600060405180830381858888f193505050501580156106e0573d6000803e3d6000fd5b507ff440aec6b52895984d061d622e6edeba6210f7c3e059be920663140c084560d7848360000160009054906101000a900473ffffffffffffffffffffffffffffffffffffffff1683604051610738939291906118c6565b60405180910390a15b50505050565b60015481565b60008060008381526020019081526020016000209050806002015442116107a9576040517f08c379a00000000000000000000000000000000000000000000000000000000081526004016107a090611949565b60405180910390fd5b8060070160009054906101000a900460ff16156107fb576040517f08c379a00000000000000000000000000000000000000000000000000000000081526004016107f2906119b5565b60405180910390fd5b8060010154816003015410610845576040517f08c379a000000000000000000000000000000000000000000000000000000000815260040161083c90611a47565b60405180910390fd5b60008160080160003373ffffffffffffffffffffffffffffffffffffffff1673ffffffffffffffffffffffffffffffffffffffff168152602001908152602001600020549050600081116108ce576040517f08c379a00000000000000000000000000000000000000000000000000000000081526004016108c590611ab3565b60405180910390fd5b60008260080160003373ffffffffffffffffffffffffffffffffffffffff1673ffffffffffffffffffffffffffffffffffffffff168152602001908152602001600020819055503373ffffffffffffffffffffffffffffffffffffffff166108fc829081150290604051600060405180830381858888f1935050505015801561095b573d6000803e3d6000fd5b507ff3f402280ef0a7905e124aa621b65eaeb2725c343e8b36d398ed78c29daf285c83338360405161098f939291906118c6565b60405180910390a1505050565b600060608060008060006109ae610f4f565b6000806000808b815260200190815260200160002090508060000160009054906101000a900473ffffffffffffffffffffffffffffffffffffffff168160040182600501836001015484600301548560020154866006018760070160009054906101000a900460ff16868054610a2390611562565b80601f0160208091040260200160405190810160405280929190818152602001828054610a4f90611562565b8015610a9c5780601f10610a7157610100808354040283529160200191610a9c565b820191906000526020600020905b815481529060010190602001808311610a7f57829003601f168201915b50505050509650858054610aaf90611562565b80601f0160208091040260200160405190810160405280929190818152602001828054610adb90611562565b8015610b285780601f10610afd57610100808354040283529160200191610b28565b820191906000526020600020905b815481529060010190602001808311610b0b57829003601f168201915b5050505050955081600380602002604051908101604052809291908260038015610b8c576020028201916000905b82829054906101000a900460ff16151581526020019060010190602082600001049283019260010382029150808411610b565790505b505050505091509850985098509850985098509850985050919395975091939597565b60008211610bf2576040517f08c379a0000000000000000000000000000000000000000000000000000000008152600401610be990611b1f565b60405180910390fd5b428111610c34576040517f08c379a0000000000000000000000000000000000000000000000000000000008152600401610c2b90611b8b565b60405180910390fd5b6000600154905060008060008381526020019081526020016000209050338160000160006101000a81548173ffffffffffffffffffffffffffffffffffffffff021916908373ffffffffffffffffffffffffffffffffffffffff16021790555085816004019081610ca59190611d57565b5084816005019081610cb79190611d57565b508381600101819055508281600201819055506000816003018190555060008160070160006101000a81548160ff02191690831515021790555060016000815480929190610d0490611e29565b91905055507fb5d890eb2df709d2f732ed81f328b444e49c1618ed8d64c53c0a040ec4040e1e82338686604051610d3e9493929190611e71565b60405180910390a1505050505050565b600080600083815260200190815260200160002090508060070160009054906101000a900460ff1615610db6576040517f08c379a0000000000000000000000000000000000000000000000000000000008152600401610dad906119b5565b60405180910390fd5b8060020154421115610dfd576040517f08c379a0000000000000000000000000000000000000000000000000000000008152600401610df490611f02565b60405180910390fd5b60003411610e40576040517f08c379a0000000000000000000000000000000000000000000000000000000008152600401610e3790611f94565b60405180910390fd5b348160080160003373ffffffffffffffffffffffffffffffffffffffff1673ffffffffffffffffffffffffffffffffffffffff1681526020019081526020016000206000828254610e919190611fb4565b9250508190555034816003016000828254610eac9190611fb4565b925050819055507fb5c5ea1a898780d7e2fa7e4b8ec6d8ba4fdcf3be360bb5e76ae40e4769053a19823334604051610ee6939291906118c6565b60405180910390a15050565b600080600084815260200190815260200160002060080160008373ffffffffffffffffffffffffffffffffffffffff1673ffffffffffffffffffffffffffffffffffffffff16815260200190815260200160002054905092915050565b6040518060600160405280600390602082028036833780820191505090505090565b6000604051905090565b600080fd5b600080fd5b6000819050919050565b610f9881610f85565b8114610fa357600080fd5b50565b600081359050610fb581610f8f565b92915050565b600060208284031215610fd157610fd0610f7b565b5b6000610fdf84828501610fa6565b91505092915050565b600073ffffffffffffffffffffffffffffffffffffffff82169050919050565b600061101382610fe8565b9050919050565b61102381611008565b82525050565b61103281610f85565b82525050565b600081519050919050565b600082825260208201905092915050565b60005b83811015611072578082015181840152602081019050611057565b60008484015250505050565b6000601f19601f8301169050919050565b600061109a82611038565b6110a48185611043565b93506110b4818560208601611054565b6110bd8161107e565b840191505092915050565b60008115159050919050565b6110dd816110c8565b82525050565b600060e0820190506110f8600083018a61101a565b6111056020830189611029565b6111126040830188611029565b61111f6060830187611029565b8181036080830152611131818661108f565b905081810360a0830152611145818561108f565b905061115460c08301846110d4565b98975050505050505050565b6000806040838503121561117757611176610f7b565b5b600061118585828601610fa6565b925050602061119685828601610fa6565b9150509250929050565b60006020820190506111b56000830184611029565b92915050565b600060039050919050565b600081905092915050565b6000819050919050565b6111e4816110c8565b82525050565b60006111f683836111db565b60208301905092915050565b6000602082019050919050565b611218816111bb565b61122281846111c6565b925061122d826111d1565b8060005b8381101561125e57815161124587826111ea565b965061125083611202565b925050600181019050611231565b505050505050565b60006101408201905061127c600083018b61101a565b818103602083015261128e818a61108f565b905081810360408301526112a2818961108f565b90506112b16060830188611029565b6112be6080830187611029565b6112cb60a0830186611029565b6112d860c083018561120f565b6112e66101208301846110d4565b9998505050505050505050565b600080fd5b600080fd5b7f4e487b7100000000000000000000000000000000000000000000000000000000600052604160045260246000fd5b6113358261107e565b810181811067ffffffffffffffff82111715611354576113536112fd565b5b80604052505050565b6000611367610f71565b9050611373828261132c565b919050565b600067ffffffffffffffff821115611393576113926112fd565b5b61139c8261107e565b9050602081019050919050565b82818337600083830152505050565b60006113cb6113c684611378565b61135d565b9050828152602081018484840111156113e7576113e66112f8565b5b6113f28482856113a9565b509392505050565b600082601f83011261140f5761140e6112f3565b5b813561141f8482602086016113b8565b91505092915050565b6000806000806080858703121561144257611441610f7b565b5b600085013567ffffffffffffffff8111156114605761145f610f80565b5b61146c878288016113fa565b945050602085013567ffffffffffffffff81111561148d5761148c610f80565b5b611499878288016113fa565b93505060406114aa87828801610fa6565b92505060606114bb87828801610fa6565b91505092959194509250565b6114d081611008565b81146114db57600080fd5b50565b6000813590506114ed816114c7565b92915050565b6000806040838503121561150a57611509610f7b565b5b600061151885828601610fa6565b9250506020611529858286016114de565b9150509250929050565b7f4e487b7100000000000000000000000000000000000000000000000000000000600052602260045260246000fd5b6000600282049050600182168061157a57607f821691505b60208210810361158d5761158c611533565b5b50919050565b7f4f6e6c792063726561746f722063616e20617070726f7665206d696c6573746f60008201527f6e65730000000000000000000000000000000000000000000000000000000000602082015250565b60006115ef602383611043565b91506115fa82611593565b604082019050919050565b6000602082019050818103600083015261161e816115e2565b9050919050565b7f496e76616c6964206d696c6573746f6e6520696e646578000000000000000000600082015250565b600061165b601783611043565b915061166682611625565b602082019050919050565b6000602082019050818103600083015261168a8161164e565b9050919050565b7f4e487b7100000000000000000000000000000000000000000000000000000000600052603260045260246000fd5b7f4d696c6573746f6e6520616c726561647920617070726f766564000000000000600082015250565b60006116f6601a83611043565b9150611701826116c0565b602082019050919050565b60006020820190508181036000830152611725816116e9565b9050919050565b7f4e487b7100000000000000000000000000000000000000000000000000000000600052601160045260246000fd5b600061176682610f85565b915061177183610f85565b92508282039050818111156117895761178861172c565b5b92915050565b7f50726576696f7573206d696c6573746f6e65206e6f7420617070726f76656400600082015250565b60006117c5601f83611043565b91506117d08261178f565b602082019050919050565b600060208201905081810360008301526117f4816117b8565b9050919050565b60006040820190506118106000830185611029565b61181d6020830184611029565b9392505050565b600061182f82610f85565b915061183a83610f85565b925082820261184881610f85565b9150828204841483151761185f5761185e61172c565b5b5092915050565b7f4e487b7100000000000000000000000000000000000000000000000000000000600052601260045260246000fd5b60006118a082610f85565b91506118ab83610f85565b9250826118bb576118ba611866565b5b828204905092915050565b60006060820190506118db6000830186611029565b6118e8602083018561101a565b6118f56040830184611029565b949350505050565b7f446561646c696e6520686173206e6f7420706173736564207965740000000000600082015250565b6000611933601b83611043565b915061193e826118fd565b602082019050919050565b6000602082019050818103600083015261196281611926565b9050919050565b7f50726f6a65637420697320636c6f736564000000000000000000000000000000600082015250565b600061199f601183611043565b91506119aa82611969565b602082019050919050565b600060208201905081810360008301526119ce81611992565b9050919050565b7f43616e6e6f7420636c61696d20726566756e642c20676f616c2077617320726560008201527f6163686564000000000000000000000000000000000000000000000000000000602082015250565b6000611a31602583611043565b9150611a3c826119d5565b604082019050919050565b60006020820190508181036000830152611a6081611a24565b9050919050565b7f4e6f20636f6e747269627574696f6e20666f756e640000000000000000000000600082015250565b6000611a9d601583611043565b9150611aa882611a67565b602082019050919050565b60006020820190508181036000830152611acc81611a90565b9050919050565b7f476f616c206d7573742062652067726561746572207468616e20300000000000600082015250565b6000611b09601b83611043565b9150611b1482611ad3565b602082019050919050565b60006020820190508181036000830152611b3881611afc565b9050919050565b7f446561646c696e65206d75737420626520696e20746865206675747572650000600082015250565b6000611b75601e83611043565b9150611b8082611b3f565b602082019050919050565b60006020820190508181036000830152611ba481611b68565b9050919050565b60008190508160005260206000209050919050565b60006020601f8301049050919050565b600082821b905092915050565b600060088302611c0d7fffffffffffffffffffffffffffffffffffffffffffffffffffffffffffffffff82611bd0565b611c178683611bd0565b95508019841693508086168417925050509392505050565b6000819050919050565b6000611c54611c4f611c4a84610f85565b611c2f565b610f85565b9050919050565b6000819050919050565b611c6e83611c39565b611c82611c7a82611c5b565b848454611bdd565b825550505050565b600090565b611c97611c8a565b611ca2818484611c65565b505050565b5b81811015611cc657611cbb600082611c8f565b600181019050611ca8565b5050565b601f821115611d0b57611cdc81611bab565b611ce584611bc0565b81016020851015611cf4578190505b611d08611d0085611bc0565b830182611ca7565b50505b505050565b600082821c905092915050565b6000611d2e60001984600802611d10565b1980831691505092915050565b6000611d478383611d1d565b9150826002028217905092915050565b611d6082611038565b67ffffffffffffffff811115611d7957611d786112fd565b5b611d838254611562565b611d8e828285611cca565b600060209050601f831160018114611dc15760008415611daf578287015190505b611db98582611d3b565b865550611e21565b601f198416611dcf86611bab565b60005b82811015611df757848901518255600182019150602085019450602081019050611dd2565b86831015611e145784890151611e10601f891682611d1d565b8355505b6001600288020188555050505b505050505050565b6000611e3482610f85565b91507fffffffffffffffffffffffffffffffffffffffffffffffffffffffffffffffff8203611e6657611e6561172c565b5b600182019050919050565b6000608082019050611e866000830187611029565b611e93602083018661101a565b611ea06040830185611029565b611ead6060830184611029565b95945050505050565b7f50726f6a65637420646561646c696e6520686173207061737365640000000000600082015250565b6000611eec601b83611043565b9150611ef782611eb6565b602082019050919050565b60006020820190508181036000830152611f1b81611edf565b9050919050565b7f436f6e747269627574696f6e206d75737420626520677265617465722074686160008201527f6e20300000000000000000000000000000000000000000000000000000000000602082015250565b6000611f7e602383611043565b9150611f8982611f22565b604082019050919050565b60006020820190508181036000830152611fad81611f71565b9050919050565b6000611fbf82610f85565b9150611fca83610f85565b9250828201905080821115611fe257611fe161172c565b5b9291505056fea2646970667358221220983c3947f91f71c8d6e9e30a888e49134f1743d2c0459d315e2f01a55f35755164736f6c63430008190033",
  "linkReferences": {},
  "deployedLinkReferences": {}
}